:020000040800F2
:100000000050002021020008290200082D020008EB
:100010009D020008A1020008E9020008000000009B
:100020000000000000000000000000003103000894
:10003000350300080000000039030008210A000809
:100040004D0300084D0300084D0300084D03000850
:100050004D0300084D0300084D0300084D03000840
:100060004D0300084D0300084D0300084D03000830
:100070004D0300084D0300084D0300084D03000820
:100080004D0300084D0300084D0300084D03000810
:100090004D0300084D0300084D0300084D03000800
:1000A0004D0300084D0300084D0300084D030008F0
:1000B0004D0300084D0300084D0300084D030008E0
:1000C0004D0300084D0300084D0300084D030008D0
:1000D0004D0300084D0300084D0300084D030008C0
:1000E0004D0300084D0300084D0300080000000008
:1000F0000000000000000000000000000000000000
:1001000000000000000000005FF808F100B583B0B7
:1001100000F0EEFA304B314A1360314A1360314B34
:10012000314A03E011681960043304322F498B42CD
:10013000F8D32A4B1A682E4B9A4204D1284B1A68DE
:100140002C4B9A4200D0FEE7234B2B4A13602B4ADC
:1001500013602B4B02E000221A600433294A9342B9
:10016000F9D3254B1B6813B9244B1B6803B1FEE779
:1001700000F0CAFA01A8694600F048FA224B234D64
:10018000ED1AAD10002404E01F4B53F824309847BB
:100190000134A542F8DC1E4B1E4DED1AAD100024B3
:1001A00004E01B4B53F8243098470134A542F8DC97
:1001B0000198009900F07EFC0546174B174CE41A95
:1001C000A41004E0013C144B53F824309847002C51
:1001D000F8DC284600F0ECF9BABADECA00000020CC
:1001E0008400002000000020E8150008880000209E
:1001F000785634123254769888000020240100206A
:1002000088000020280100207803000878030008F7
:1002100078030008780300087803000878030008D2
:1002200008B5FFF773FF00BF00BEFEE71EF0040F26
:100230000CBFEFF30880EFF309807146404A104786
:100240002DE9F04383B005468946124C676BA66BD7
:10025000D4F82880236B13F0020F0BD0E36A002B35
:1002600008DA4BF6AB6100F0CBFA18B14FF0004260
:10027000E2620CE0084800F0DDF9CDF80090284675
:1002800041463A46334600F043FA00BEFEE703B06B
:10029000BDE8F08300ED00E04C15000800BEFEE76D
:1002A0001EF0040F0CBFEFF30880EFF309807146D6
:1002B000244A10472DE9F04182B007468846084C91
:1002C000666BA56BA46A074800F0B4F9CDF800800E
:1002D0003846214632462B4600F01AFA00BEFEE7A9
:1002E00000ED00E05C1500081EF0040F0CBFEFF3FA
:1002F0000880EFF309807146134A10472DE9F04159
:1003000082B007468846084C666BA56BA46A07480E
:1003100000F090F9CDF800803846214632462B4651
:1003200000F0F6F900BEFEE700ED00E068150008F9
:1003300000BEFEE700BEFEE700BEFEE7704700001D
:1003400041020008B5020008FD02000800BEFEE7F9
:10035000E81500080000002088000020E8150008CB
:10036000000000000000000088000020280100209C
:08037000000000000000000085
:10037800F8B505460C46474B98421BD003F58063F9
:10038800984217D003F58063984213D003F5806331
:1003980098420FD003F5806398420BD003F5806331
:1003A800984207D003F58063984203D03A48B221B7
:1003B80000F030F9E3788BB1042B0FD0282B0DD047
:1003C800482B0BD0142B09D0102B07D01C2B05D091
:1003D800182B03D03048B32100F01CF923881BB92F
:1003E8002D48B42100F016F9E37803F00F063046E3
:1003F80013F0100F0AD0A378013BDBB2022B03D90C
:100408002548BB2100F006F9A07830432378E3B1F2
:100418002E68002316E001229A402188114091425B
:100428000FD199000F278F4026EA070600FA01F13D
:100438000E43E178282901D16A6102E0482900D1F8
:100448002A610133072BE6D92E602388FF2B1FD999
:100458006E68002319E003F10802012101FA02F293
:100468002188114091420FD199000F278F4026EA29
:10047800070600FA01F10E43E178282900D16A61E4
:10048800E178482900D12A610133072BE3D96E604E
:10049800F8BD00BF000801402013000838B5044625
:1004A8000D46144B98421CD003F58063984218D02F
:1004B80003F58063984214D003F58063984210D006
:1004C80003F5806398420CD003F58063984208D006
:1004D80003F58063984204D0074840F2691100F0A0
:1004E80099F825B904484FF4B57100F093F82561DF
:1004F80038BD00BF000801402013000838B5044685
:100508000D46144B98421CD003F58063984218D0CE
:1005180003F58063984214D003F58063984210D0A5
:1005280003F5806398420CD003F58063984208D0A5
:1005380003F58063984204D0074840F2791100F02F
:1005480069F825B904484FF4BD7100F063F8656196
:1005580038BD00BF000801402013000838B5044624
:100568000D460E4B034003B920B90D4840F24A41ED
:1005780000F050F8012D04D9094840F24B4100F031
:1005880049F825B1074B9A6914439C6138BD054B5E
:100598009A6922EA04049C6138BD00BF0200C0FFCA
:1005A8005413000800100240FEE700BF08B50348D6
:1005B80000F056F80120FFF7F7FF00BF841300088A
:1005C80008B50D4B1B6813B90C4A0B4B1A600A4B44
:1005D8001B68033020F003001844094A904206D9EA
:1005E80000F07AFA0C2303604FF0FF3008BD024A8E
:1005F8001060184608BD00BF8C00002028010020AC
:10060800004C002001230360014B0B60704700BFC2
:100618000400002008B503460A460348194600F0BE
:1006280005F8FFF7C3FF00BFD81300080FB400B5E3
:1006380083B004AB53F8042B01930848802100F0E1
:1006480083FA011E03DD054800F04AF80146084612
:1006580003B05DF804EB04B0704700BF94000020BD
:1006680010B5044600F03EFA0146204600F038F87E
:100678000248012100F034F810BD00BFC81400087A
:100688002DE9F04385B004468846435C0BBB04253E
:1006980028462146ABBE04461EE0102F34BF3E4616
:1006A8001026002306E014F8015B04AA1A4402F895
:1006B800105C0133B342F6D304AA1344002203F8B2
:1006C800102CE946042528464946ABBE0546BF1B03
:1006D80000E00F46002FE0D1404605B0BDE8F083AA
:1006E80008B5FFF7CDFF08BD08B500F0FDF8024BCF
:1006F800024A9A6008BD00BF00ED00E00000000853
:1007080008B500F019F908BDF8B504460D461746B6
:100718001E462648FFF78AFF25482168FFF786FF0F
:1007280024486168FFF782FF2348A168FFF77EFF2E
:100738002248E168FFF77AFF21482169FFF776FF31
:1007480020486169FFF772FF1F48A169FFF76EFF34
:100758001E48E169FFF76AFF1D48FFF767FF1D485C
:100768002946FFF763FF1C4CE16A1C48FFF75EFF50
:10077800216B1B48FFF75AFFE16B1A48FFF756FF3A
:1007880015F0800F03D018483946FFF74FFF15F4CE
:10079800004F03D015483146FFF748FF1448FFF7CC
:1007A80045FF14480699FFF741FFF8BD30140008CB
:1007B8004014000850140008601400087014000861
:1007C8008014000890140008A0140008B014000851
:1007D800C0140008CC14000800ED00E0DC14000888
:1007E800EC140008FC1400080C1500081C1500087F
:1007F8002C1500083415000883691A888A4207D125
:100808000268033A012A05D8023383610120704740
:10081800002070470020704782B0002301930093A6
:1008280003F1804303F504331A6842F480321A60F6
:10083800294B1B6803F400330093019B0133019398
:10084800009B1BB9019BB3F5A06FF1D1224B1B682C
:1008580013F4003F02D00123009301E0002300932A
:10086800009B012B36D11D4B1A6842F010021A600A
:100878001A6822F003021A601A6842F002021A602B
:10088800A3F580535A685A605A685A605A6842F405
:1008980080625A605A6822F47C125A605A6842F49C
:1008A800E8125A601A6842F080721A600A4B1B6894
:1008B80013F0007FFAD0084B5A6822F003025A60FE
:1008C8005A6842F002025A60034B5B6803F00C035B
:1008D800082BF9D102B070470010024000200240F6
:1008E80008B5FFF799FF08BD08B5104B1A6842F024
:1008F80001021A6059680E4A0A405A601A6822F0C2
:10090800847222F480321A601A6822F480221A60F3
:100918005A6822F4FE025A604FF41F029A60FFF7E9
:10092800DFFF4FF00062034B9A6008BD00100240E1
:100938000000FFF800ED00E01F4B5B6803F00C03BC
:10094800042B06D0082B08D03BBB1C4A1C4B1A6052
:1009580026E01A4A1A4B1A6022E0174B5A685B685D
:10096800C2F38342023213F4803F05D1154B03FBD7
:1009780002F2134B1A6013E00F4B5B6813F4003F4D
:1009880005D0104B03FB02F20D4B1A6008E00B4B2D
:1009980003FB02F20A4B1A6002E0084A084B1A608D
:1009A800054B5B68C3F30313074AD15CC9B2044B18
:1009B8001A68CA401A6070470010024000127A0094
:1009C8001C00002000093D000C00002030B583B059
:1009D80008200121FFF7C2FD2024ADF804400323BD
:1009E8008DF8063010238DF80730054D284601A9EB
:1009F800FFF7BEFC28462146FFF750FD03B030BD87
:100A0800000C0140034B1860024B1B68002BFBD104
:100A1800704700BF14010020034B1B681BB1024B39
:100A28001A68013A1A6070471401002010B582B0A4
:100A3800184B1A68184BA3FB02129209013AB2F13B
:100A4800807F09D2154B5A60F021154A82F823108D
:100A580000229A6007221A6001A8FFF7B7FF002456
:100A680010482021FFF74AFD14B94FF47A7001E0CD
:100A780040F2EE20FFF7C6FF0A482021FFF70EFDDF
:100A8800FA20FFF7BFFF013407482146FFF7CEFDE4
:100A9800E6E700BF1C000020D34D621010E000E024
:100AA80000ED00E0000C01407815000800B583B0A7
:100AB8000648FFF7D5FD0648064B1968FFF7B6FD4F
:100AC80001A8FFF7B3FF03B05DF804FB8415000825
:100AD800981500081C000020014B1868704700BFDB
:100AE80080000020034613F8012B002AFBD1181AB6
:100AF8000138704730B5141E9BB0054604DA8B23C5
:100B080003604FF0FF301CE04FF402720091049133
:100B1800ADF80C2014BF04F1FF3121464FF6FF72E7
:100B280002910591ADF80E2069461A461E9B00F009
:100B380077F8431CBCBF8B232B6014B1009B0022A9
:100B48001A701BB030BD000073B50093054B064604
:100B58000D461446186831462A462346FFF7CAFF51
:100B680002B070BD800000202DE9F0478D688146F5
:100B7800AB420C4692461F4643D38B8913F4906FC1
:100B88003DD0266809690222C1EB0608666906EBB2
:100B9800460696FBF2F608F101023A44964238BF3F
:100BA80016465B050FD5314600F022FB054698B185
:100BB8002169424600F0B4FAA38923F4906343F014
:100BC8008003A38113E0324600F066FB054670B946
:100BD8004846216900F0C8FA0C23C9F80030A389F7
:100BE8004FF0FF3043F04003A381BDE8F087256153
:100BF80066614544C8EB06062560A6603D46AF42DF
:100C080000D23D462A462068514600F092FAA36871
:100C180000205B1BA36023681D442560BDE8F087A6
:100C28002DE9F0439DB003938B8907461C060D46BA
:100C380016460CD50B6953B9402100F0D9FA286043
:100C4800286110B90C233B60C7E040236B61002387
:100C5800099320238DF8293030238DF82A30334624
:100C68001C4613F8012B1AB9B4EB06090FD002E0A1
:100C7800252AF5D1F8E73846294632464B46FFF78C
:100C880073FF013000F0A480099B4B44099323783B
:100C9800002B00F09D8000234FF0FF320493079350
:100CA800059206938DF853301A9304F101094D4EBD
:100CB8004C4630462178052200F024FA09F1010952
:100CC800049B28B1861B0120B04003430493EEE740
:100CD800D90644BF20228DF853201A0744BF2B227F
:100CE8008DF8532022782A2A02D0079B21460EE04D
:100CF800039A111D12680391002A01DB079204E090
:100D0800524243F002030792049301340AE00C466E
:100D180022780131303A092A03D80A2000FB03233C
:100D2800F5E7079323782E2B19D163782A2B09D15D
:100D3800039B02341A1D1B680392002BB8BF4FF0A7
:100D4800FF330BE0611C00230C4622780131303A56
:100D5800092A03D80A2000FB0323F5E70593224E4E
:100D680021783046032200F0CDF930B1861B4020AF
:100D7800B040049B01340343049321781B480622A6
:100D8800661C8DF8281000F0BDF988B1184B33B9EE
:100D9800039B073323F007030833039314E003ABE3
:100DA8000093384604A92A46124BAFF3008007E0A7
:100DB80003AB0093384604A92A460E4B00F08EF880
:100DC800B0F1FF3F804603D0099B4344099346E7AF
:100DD800AB895B0601D4099801E04FF0FF301DB0E4
:100DE800BDE8F083B2150008B8150008BC15000866
:100DF80000000000710B00082DE9F84315461F4656
:100E08008A680B6906469A42A8BF13462B6091F878
:100E180043200C46DDF820800AB101332B6023689B
:100E2800990602D52B6802332B60236813F0060954
:100E38001DD094F843302268003318BF012392066E
:100E48001FD5E118302081F843005A1C94F845104A
:100E58002244023382F8431013E03046394604F145
:100E680019020123C047013007D009F10109E268DE
:100E78002B68D31A9945F0DBDBE74FF0FF30BDE86C
:100E8800F8833046394604F14302C0470130F4D0B4
:100E980023682A6803F00603E168042B08BFC2EB45
:100EA80001052369A2680CBF25EAE57500259A4269
:100EB800C4BFC3EB0203ED184FF00009A9450ADAD5
:100EC8003046394604F11A020123C0470130D4D014
:100ED80009F10109F2E70020BDE8F8832DE9FF4791
:100EE8000E7E80466E2E0C4691469A460C9D01F168
:100EF800430000F0A58011D8632E22D009D8002E17
:100F080000F0AF80582E40F0BF8081F845607B4AE2
:100F18004FE0642E1ED0692E1CD0B5E0732E00F071
:100F2800A48009D86F2E2BD0702E40F0AD800B68AE
:100F380043F020030B6038E0752E21D0782E34D092
:100F4800A2E02B6801F142071A1D1B682A6081F88C
:100F580042309DE022682B6812F0800F03D01A1DE2
:100F68002A601D6805E05106F9D51A1D2A60B3F9F3
:100F78000050002D39DA2D236D4284F8433034E0D7
:100F880022682B6812F0800F03D01A1D2A601D6892
:100F980004E05206F9D51A1D2A601D88237E574A97
:100FA8006F2B14BF0A2308231BE07823544A84F8C4
:100FB80045302368296813F0800F01F104062E607C
:100FC80001D00D6802E05F06FBD50D88DE0744BF3F
:100FD80043F0200323601DB9236823F02003236016
:100FE8001023002184F8431001E0444A0A2366686C
:100FF800002EA66003DB216821F00401216005B9F9
:101008006EB104F14201B5FBF3F603FB1655555DCD
:101018000F4601F801593546002EF4D100E0074685
:10102800082B0AD12368DD0707D5626823699A422D
:1010380003DC302307F8013C013FC01B20612CE092
:1010480009682B6811F0800F626904D0191D2960A6
:101058001B681A6005E04906F8D5191D29601B6848
:101068001A8000232361074617E02B681A1D2A609F
:101078001F683846FFF736FD63682061984288BFCD
:1010880023612369636005E004F1420784F8426044
:1010980001232361002384F84330CDF800A04046A3
:1010A800214603AA4B46FFF7A7FE013002D14FF0B5
:1010B800FF301FE0404649463A462369D047013091
:1010C800F5D023689B0705D4E068039B9842B8BF16
:1010D80018460FE00025E268039BD31A9D42F3DA15
:1010E8004046494604F119020123D0470130DED0B9
:1010F8000135F0E704B0BDE8F08700BFC31500086C
:10110800D415000810B5C9B202449042034605D070
:101118001C7801308C42F8D1184610BD002010BD53
:1011280010B50023934203D0CC5CC4540133F9E7D3
:1011380010BD814270B501D300230EE08C18A04287
:10114800FAD28518134613F1FF3305D351426618B6
:10115800F65C2944CE54F6E770BD934203D0CC5CCC
:10116800C4540133F9E770BD30B500293CD051F8BB
:10117800042C0B1F1D49002AB8BF9B180A680C468F
:1011880012B95A600B6030BD93420DD219685818D5
:10119800904203D15A581144426819605A6023603A
:1011A80030BD994203D80A4651680029F9D114681C
:1011B80015199D420AD11B682344D0188842136030
:1011C80012D10868034413604B680CE002D90C2361
:1011D800036030BD18681C188C4203D10C6849683C
:1011E800204418605960536030BD00BF1C010020C6
:1011F80070B5CD1C25F0030508350C2D38BF0C251E
:10120800002D06463FDB8D423DD3214B1C68184616
:101218002146A1B10B685B1B0ED40B2B03D90B60C5
:10122800CC18CD501FE08C4202D1626802601AE0EF
:101238004B6863600C4616E00C464968E9E7154CB4
:1012480023681BB9304600F04DF820602946304627
:1012580000F048F8431C014615D0C41C24F00304D0
:1012680084420AD1256004F10B00231D20F00700F9
:10127800C31A0BD05A42E25070BD3046611A00F0D2
:1012880031F80130EED10C233360002070BD00BF6F
:101298001C01002018010020F8B5064614460D462A
:1012A80021B91146BDE8F840FFF7A2BF1AB9FFF708
:1012B8005BFF2046F8BD00F025F8A0420ED230466C
:1012C8002146FFF795FF074650B129462246FFF70A
:1012D80027FF30462946FFF747FF01E02846F8BDBB
:1012E8003846F8BD38B5064C002305460846236045
:1012F800FFF766F9431C02D1236803B12B6038BDA0
:101308002001002051F8040C002802DA04390B5897
:1013180018440438704700002E2E2F7379737465B3
:101328006D2F7372632F73746D333266312D73743E
:10133800647065726970682F73746D33326631300A
:10134800785F6770696F2E63000000002E2E2F7380
:10135800797374656D2F7372632F73746D3332668E
:10136800312D7374647065726970682F73746D338E
:1013780032663130785F7263632E630061626F7228
:101388007428292C2065786974696E672E2E2E00C2
:101398002C2066756E6374696F6E3A200000000039
:1013A800617373657274696F6E20222573222066DB
:1013B80061696C65643A2066696C65202225732230
:1013C8002C206C696E65202564257325730A00003E
:1013D8006173736572745F706172616D282920662C
:1013E80061696C65643A2066696C65202225732200
:1013F8002C206C696E652025640A00006D61696E99
:1014080028617267633D25642C20617267763D5BB5
:10141800000000002C20000022257322000000009C
:101428005D293B0A00000000537461636B206672FB
:10143800616D653A0A000000205230203D202025C9
:101448003038580A00000000205231203D20202565
:101458003038580A00000000205232203D20202554
:101468003038580A00000000205233203D20202543
:101478003038580A0000000020523132203D202523
:101488003038580A00000000204C52203D2020250A
:101498003038580A00000000205043203D20202505
:1014A8003038580A0000000020505352203D2025B3
:1014B8003038580A000000004653522F4641523A2D
:1014C8000A0000002043465352203D202025303892
:1014D800580A00002048465352203D202025303825
:1014E800580A00002044465352203D202025303819
:1014F800580A00002041465352203D20202530380C
:10150800580A0000204D4D464152203D20253038D4
:10151800580A00002042464152203D2020253038FC
:10152800580A00004D6973630A000000204C522FCE
:101538004558435F52455455524E3D202530385842
:101548000A0000005B486172644661756C745D0A4C
:10155800000000005B4275734661756C745D0A009B
:101568005B55736167654661756C745D0A000000C0
:101578005365636F6E642025750A000048656C6CBE
:101588006F2041524D20576F726C6421000000009B
:1015980053797374656D20636C6F636B3A2025759E
:1015A80020487A0A000000004300232D302B200039
:1015B800686C4C0065666745464700303132333405
:1015C80035363738394142434445460030313233A5
:0D15D800343536373839616263646566006A
:1015E800785634129000002000000000000000002F
:1015F80000000000010203040607080900A24A04CB
:1016080000000000000000000000000000000000D2
:1016180000000000000000000000000000000000C2
:10162800B0150008000000000000000000000000E5
:1016380000000000000000000000000000000000A2
:101648000000000000000000000000000000000092
:101658000000000000000000000000000000000082
:081668002000002032547698A6
:040000050800010DE1
:00000001FF
